:10000000FC1F0020F900000003E2FF1F03E2FF1FB6
:1000100003E2FF1F03E2FF1F03E2FF1F01E2FF1FD6
:1000200001E2FF1F01E2FF1F01E2FF1F03E2FF1FCA
:1000300003E2FF1F01E2FF1F03E2FF1F03E2FF1FB6
:1000400003E2FF1F03E2FF1F03E2FF1F03E2FF1FA4
:1000500003E2FF1F03E2FF1F03E2FF1F03E2FF1F94
:1000600003E2FF1F03E2FF1F03E2FF1F03E2FF1F84
:1000700003E2FF1F03E2FF1F03E2FF1F03E2FF1F74
:10008000B9E6FF1F03E2FF1F03E2FF1F03E2FF1FAA
:1000900003E2FF1F03E2FF1F03E2FF1F03E2FF1F54
:1000A00003E2FF1F03E2FF1F03E2FF1F03E2FF1F44
:1000B00003E2FF1F03E2FF1F03E2FF1F03E2FF1F34
:1000C00003E2FF1F03E2FF1F03E2FF1F45E2FF1FE2
:1000D00003E2FF1F03E2FF1F03E2FF1F03E2FF1F14
:1000E00003E2FF1F03E2FF1F03E2FF1F03E2FF1F04
:1000F00003E2FF1F03E2FF1F3D4B4CF220521A8028
:100100004DF628121A8000BF00BFD32223F80E2C10
:1001100000221A81072223F80A2C4FF4A64223F862
:10012000082CA3F51F43D63B324A1A60324A5A6064
:1001300003F5533303F2CA331A78110703D51A783B
:1001400042F008021A702D4B0A221A70A3F6FF73B0
:1001500024221A70A02203F8012C294B1A78920746
:10016000FBD51A78D006FCD41A7802F00C02082AC3
:10017000FAD1244B03221A7040225A700023224ADB
:1001800022499818884204D2214959589950043379
:10019000F5E7204A204B9A424FF0000302D242F882
:1001A000043BF7E71D491E4A595899500433B3F5EB
:1001B000807FF7D11B4B1A60114B1A789106FBD543
:1001C0001A785206FCD5184B184A1A60184B202290
:1001D0001A700B4B1B7803F00C030C2BF9D1154B49
:1001E00002221A60443B144A1A6062B600F028B832
:1001F0000E200540823F04000100002B0050064005
:10020000064006400440064000E2FF1F10ECFF1FBE
:100210001004000000F0FF1F34F9FF1F0000000071
:1002200000F0FF1F08ED00E04480044000000311CF
:100230000040064048800440C0100500FFFFFFFF5B
:1002400001B40248844601BC604700BFBDE7FF1F00
:10025000FFFFFFFFFFFFFFFFFFFFFFFFFFFFFFFFAE
:10026000FFFFFFFFFFFFFFFFFFFFFFFFFFFFFFFF9E
:10027000FFFFFFFFFFFFFFFFFFFFFFFFFFFFFFFF8E
:10028000FFFFFFFFFFFFFFFFFFFFFFFFFFFFFFFF7E
:10029000FFFFFFFFFFFFFFFFFFFFFFFFFFFFFFFF6E
:1002A000FFFFFFFFFFFFFFFFFFFFFFFFFFFFFFFF5E
:1002B000FFFFFFFFFFFFFFFFFFFFFFFFFFFFFFFF4E
:1002C000FFFFFFFFFFFFFFFFFFFFFFFFFFFFFFFF3E
:1002D000FFFFFFFFFFFFFFFFFFFFFFFFFFFFFFFF2E
:1002E000FFFFFFFFFFFFFFFFFFFFFFFFFFFFFFFF1E
:1002F000FFFFFFFFFFFFFFFFFFFFFFFFFFFFFFFF0E
:10030000FFFFFFFFFFFFFFFFFFFFFFFFFFFFFFFFFD
:10031000FFFFFFFFFFFFFFFFFFFFFFFFFFFFFFFFED
:10032000FFFFFFFFFFFFFFFFFFFFFFFFFFFFFFFFDD
:10033000FFFFFFFFFFFFFFFFFFFFFFFFFFFFFFFFCD
:10034000FFFFFFFFFFFFFFFFFFFFFFFFFFFFFFFFBD
:10035000FFFFFFFFFFFFFFFFFFFFFFFFFFFFFFFFAD
:10036000FFFFFFFFFFFFFFFFFFFFFFFFFFFFFFFF9D
:10037000FFFFFFFFFFFFFFFFFFFFFFFFFFFFFFFF8D
:10038000FFFFFFFFFFFFFFFFFFFFFFFFFFFFFFFF7D
:10039000FFFFFFFFFFFFFFFFFFFFFFFFFFFFFFFF6D
:1003A000FFFFFFFFFFFFFFFFFFFFFFFFFFFFFFFF5D
:1003B000FFFFFFFFFFFFFFFFFFFFFFFFFFFFFFFF4D
:1003C000FFFFFFFFFFFFFFFFFFFFFFFFFFFFFFFF3D
:1003D000FFFFFFFFFFFFFFFFFFFFFFFFFFFFFFFF2D
:1003E000FFFFFFFFFFFFFFFFFFFFFFFFFFFFFFFF1D
:1003F000FFFFFFFFFFFFFFFFFFFFFFFFFFFFFFFF0D
:10040000FFFFFFFFFFFFFFFFFEFFFFFFFEFFFF40BD
:10041000FEE7FEE7F0B50C4B0C4C1A7842F00205F3
:1004200004EBC50682F00102706009481A70067874
:10043000002E0CBF8827C82786F0010647EA014135
:10044000067044F83510F0BD48F4FF1F00E0FF1FB0
:100450009FF4FF1F2DE9F743944E3378DBB213F07E
:10046000040F18BF042103F0080018BF3170324692
:1004700000F0FF01002800F093818D4B1F78FFB240
:100480003B0940F08A818B4CBF0804EBC7025168DE
:1004900054F83720C2F38302092A00F057810D2A4D
:1004A00003D0012A40F076811CE1834D0A68496837
:1004B0006960824944F8371081492A600120087038
:1004C000804F81493B6092B2B2F5A06F0B8067D03C
:1004D00024D840F221139A4200F08980B2F5917F2E
:1004E0000CD2822A3FD0B2F5817F4BD0802A40F0D7
:1004F000A880764C002323706370A5E040F2A133FE
:100500009A4200F0848040F221439A4200F08680B3
:1005100040F202339A4240F0948043E040F281611D
:100520008A420BD8B2F5D06F4AD240F2A1539A4218
:1005300079D040F221639A427DD082E0B2F5106F0B
:100540000ED007D8B2F5086F7BD1614B5F4C1B789A
:1005500023706EE0A2F5FD42403A012A43D970E0D3
:10056000A9785B4A1BE0AA885A4B0AB10F2210E116
:10057000564C0022227062701B78980764D50123C4
:10058000237061E0AA8851065BD14B4B5B88002B3E
:1005900057D191004F4A0A44117821F0020111709D
:1005A0001C4658E0AA8853064BD1434B5B88002B6E
:1005B00047D19100474A0A44117841F00201EEE721
:1005C0006A88454B53F8084CA3F10C01002C38D035
:1005D0000C3333F8180C9042F4D1120A032A0CBFE2
:1005E00023780B8937E0AB88042B2AD12EE0AB8827
:1005F0003BBBE98849B9688800910A460B4600F080
:1006000095FA10B9334B0F221A700023C8E7AB8854
:10061000BBB92E4800F026FBD8B912E0AB8883B9ED
:1006200000F054FB0BE0AB885BB900F079FA274C83
:10063000207001230FE0AB881BB900F05DFB0028A0
:10064000E3D10F22234BA4E0022304E02823234C10
:1006500001E01E4C0623B5F80680434538BF984696
:10066000B8F1400F34BF4546402520462946FFF7E4
:10067000D1FEB8EB05082C4404D1402D40F08A800F
:10068000454604E0B8F1400F34BF454640252046BA
:100690002946FFF7BFFEB8EB05082C4401D1402DD9
:1006A00078D10F4A3C60A2F8008073E080200740B8
:1006B0009020074000E0FF1F8CF4FF1F80004000E7
:1006C0009FF4FF1F00F4FF1F04F4FF1F96F4FF1FA9
:1006D0009EF4FF1FC02007400CEBFF1FACEBFF1F79
:1006E00094F4FF1F4A48028840F221139A4229D10C
:1006F0008388484A1BB11588C3889D421FD8C38888
:10070000128840880091C2EB0308B8F1400F28BF5F
:100710004FF04008194643463E4D00F007FA70B1CD
:100720002B8898443A4BDB881FFA88F84345A5F894
:10073000008007D838480021FFF76CFE02E0374BF5
:100740000F221A70364B44F8373023E0354F3D689E
:10075000B5B1DFF8F480B8F80090B9F1400F34BFBC
:100760004C46402428462146FFF754FEC4EB0903BB
:100770009BB2A8F800300BB9402C00D12B193B607C
:10078000234B1A88B2F5A06F04D100225A709A78D0
:10079000254B1A70254B01221A70082333705BE633
:1007A000DC071FD521481E4C214D1F4A0223037030
:1007B000204B1970204B1C609C60204CDC605D60FD
:1007C00019619961154B0D241C701D4CFF2323707A
:1007D0003370117002F80C3C1A4B9F221A700123DF
:1007E000037012E0180604D50C490D200870802112
:1007F0003170990705D512490878C0B208700221F6
:100800001170DB0644BF1023137003B0BDE8F08302
:100810008CF4FF1F04F4FF1F96F4FF1FC020074055
:100820008000400000F4FF1F9820074094200740FC
:1008300008F4FF1F48F4FF1F00E0FF1F4CF4FF1FE8
:10084000882007408420074094F4FF1F184B1A6843
:1008500042F480221A6003F52833D83380221A70BC
:100860001978144A0906FBD4134B1449C3F3072023
:100870000870C3F307401B0E08750B76FF2301F8C1
:100880001C3C01F8143C01F88C3C137843F0400305
:1008900013700021012302F8783C02F80C1C02F8C6
:1008A000883C074B08221A60064B10221A707047CA
:1008B000348004400C21074000E0FF1F9C200740CB
:1008C00004E100E008210740F0B52E4A137813F048
:1008D000300F25D072B62C4B2C4C1B7803F0FF0048
:1008E0002BB923782A4B4021197062B618E062B602
:1008F000284B294D19782E78C9B2F6B21D464B1CEB
:10090000DBB2402B277828BF0023B342FFB202D0CE
:100910002249CF541946431E13F0FF00EFD129702E
:100920001F4B1978C9B20D0620D513781C061DD5AA
:100930001C4B1D481E780378F6B2DBB2B3420ED0D2
:100940000133DBB2402B1478184C28BF0023E55C40
:100950000E4CEDB225700D342478072CEED90370BF
:100960001378180602D50E4B7C201870490608D55E
:1009700013785B0605D50E4B00221A70084B3C22FB
:100980001A70F0BD04A0064016A0064007A006405D
:1009900011A0064022F5FF1FA1F4FF1FE2F4FF1F84
:1009A00003A0064024F5FF1F23F5FF1FA2F4FF1F3D
:1009B000A0F4FF1F72B6044B4AF202621A804BF297
:1009C00080421A8062B670470C20054038B5254B2E
:1009D00040F213121A6003F5342384331A6822F0AC
:1009E00010021A60043B1B68DB060BD51E4C6368C3
:1009F000A3F58053B3F5F83F04D21C4D1C4A2B6875
:100A000093421FD100F08AF8FFF720FF00F088F82A
:100A1000072806D072B600F0EBF862B6FFF7CAFFFF
:100A2000F4E7124B00221A600B24124DFFF7C2FFAD
:100A3000013DFBD1013CF8D1FFF7BCFF72B60E4B74
:100A40001C70FEE772B60D4B1C60FFF7B3FF00236E
:100A50002B60226861684FF0FF339E469546084739
:100A6000002038BD10B0044000100000FC1F002022
:100A700046436274A08601000821074008ED00E0AB
:100A80000E4B06221A70C0F3074203F8012CC0F384
:100A90000722C0B203F8022C03F8030CCA781A71BB
:100AA0008A78DA704A789A700A785A70702203F855
:100AB000072C802203F8072C704700BF0700024074
:100AC000030610B522D500F0400303F0FF043BB14C
:100AD0000F4B0A221A700F4B0E221A70002213E0DD
:100AE00010F0300208D00A4B0A221A70094B082273
:100AF0001A70094B1C7009E010F0010007D0044B7C
:100B00000A201870034B1970034B1A70012010BD96
:100B100008ECFF1F31F9FF1F30F9FF1F704700007D
:100B2000014B1878704700BF08ECFF1FF0B5D418D0
:100B3000B4F5806F059E01D88C4205D9254B0A2259
:100B40001A700822244B20E0244D2A4400259D429F
:100B500003D0775D57550135F9E78C4238D11D4AEE
:100B60001D4B1578022D114605D0052D03D00A2105
:100B700011700F2209E01A4D2A78120602D5194F7A
:100B80003A782AB10A220A700E221A700020F0BDAB
:100B90001CB906220A701C701AE08402124804F57F
:100BA00080540460012611483E7009270770C4F381
:100BB0000747240AE4B200F8017C00F8024C00F870
:100BC000032C7020287080202870032008701A7071
:100BD0000120F0BD08ECFF1F31F9FF1F2CF5FF1FAE
:100BE0000000024030F9FF1F28F5FF1F07000240F8
:100BF00070B5174B174D18782B78012BC0B202D067
:100C0000022B0FD070BD0421FFF75AFFF0B9022369
:100C10002B70114B11491860114BBDE870401868DA
:100C2000FFF72EBF0721FFF74BFF78B90A4E346854
:100C3000B4F5806F09D20A4B084918682144204452
:100C40000434FFF71DFF346070BD287070BD00BF15
:100C50000000024030F9FF1F2CF9FF1F2CF5FF1F89
:100C600028F5FF1F70B5154D154E2B78032B044644
:100C700015D3042B07D9062B11D107232B704FF462
:100C80007A7333600BE0FFF7B3FF2B780A2B06D0A3
:100C90000C4B1B780BB9052300E004232B700A4B87
:100CA0001B782370336863701A0A1B0CE3702B786F
:100CB00023710023A2706371012070BD08ECFF1F37
:100CC0000CECFF1F30F9FF1F31F9FF1F084B1A789A
:100CD0000A2A084A05D10221197000231370012045
:100CE00070470A2119700F2313700020704700BF4E
:100CF00008ECFF1F31F9FF1F034B02221A70034B50
:100D000000221A700120704708ECFF1F31F9FF1F05
:100D10000001000054EBFF1F120000000002000061
:100D20007EEBFF1F1B0000000003000004ECFF1F10
:100D3000000000000103000066EBFF1F0000000040
:100D400002030000D4EBFF1F00000000EE030000D0
:100D50009AEBFF1F000000000000000000000000F0
:100D6000000000001201000200000040501DF5606C
:100D7000000101020001180342006C0069006E00CE
:100D80006B0069006E006C00610062007300090274
:100D90001B0001010280320904000000FE01020272
:100DA00009210D1027000401010012034D0053001A
:100DB000460054003100300030007E002800000062
:100DC000000104000100000000000000000157497C
:100DD0004E555342000000000000000000000000DB
:100DE00000000000300345006900670068007400DF
:100DF0004200790045006900670068007400200027
:100E000042006F006F0074006C006F0061006400AE
:100E100065007200040309040200000001000000E4
:00000001FF
