:10100000FC1F00203D110000F9100000F910000045
:10101000F9100000F9100000F9100000091100009B
:10102000091100000911000009110000F910000069
:10103000F910000009110000F9100000FB10000079
:10104000F9100000F91000002D350000F910000023
:10105000F9100000F9100000F9100000F91000006C
:10106000F9100000F9100000F9100000F91000005C
:10107000F9100000F9100000F9100000F91000004C
:101080004D280000F9100000C52C0000F9100000E8
:10109000F9100000F9100000F9100000F91000002C
:1010A000F9100000F9100000F9100000F91000001C
:1010B000F9100000F9100000F9100000F91000000C
:1010C000F9100000F9100000F9100000BD1A00002E
:1010D000F9100000F9100000F9100000F9100000EC
:1010E000A91200000113000031130000A513000035
:1010F000F1130000F9100000FEE7024B1A680132FC
:101100001A6070473CE9FF1F08B50B4C2368580371
:1011100001D500F0D3FC2368590501D501F096FBF9
:1011200023681A0501D501F0CDFD2368DB04ECD559
:10113000FFF7E2FFE9E700BF3480044010B5002369
:10114000134A14499818884204D21349595899509F
:101150000433F5E7114B124A934203D2002243F8BD
:10116000042BF8E70F4B4BF67F321A60072243F847
:10117000042C62B600F0D2FA0B4C0C4B9C4203D00C
:1011800054F8043B9847F8E701F030FEFEE700BF53
:1011900088E7FF1FF4E8FF1FA04A0000F4E8FF1FE4
:1011A00094FAFF1F14E000E09C4A0000A04A0000EF
:1011B000024A1368184410601846704788E7FF1FFA
:1011C000EFF313839BB9EFF3108098B9EFF3058326
:1011D00023B10F2B04D9084A985C01E04FF48070CA
:1011E000EFF311833BB1834238BF184670474FF08D
:1011F000FF30704718467047F0E300E0084B4FF4AB
:1012000080721A604FF400721A604FF480621A60A4
:101210004FF400621A604FF480521A60704700BFAA
:1012200004E100E0112830B521D8042A1FD8DFE8F6
:1012300002F00709050B03000B2306E00A2304E074
:10124000082302E00C2300E00923094A02EBC00254
:10125000526872B61468074D24F47024146044F088
:10126000807444EA034345F82010136062B630BD31
:1012700098470000F4E8FF1F094B03EBC0035A68CE
:1012800072B6136823F0877323F4803343F08073BE
:101290001360044B002243F8202062B6704700BF61
:1012A00098470000F4E8FF1F134B10B51C681C6042
:1012B000E30704D5114B1A680AB11B689847A007C9
:1012C00004D50E4B5A680AB15B689847610704D58C
:1012D0000A4B9A680AB19B689847220704D5074BC6
:1012E000DA680AB1DB689847E30604D5034B1A694C
:1012F0000AB11B69984710BDA0900440F4E8FF1F95
:10130000094B10B51C681C60E20704D5074B5A69ED
:101310000AB15B699847A30704D5044B9A690AB1DF
:101320009B69984710BD00BFA0A00440F4E8FF1FD0
:101330001A4B10B51C681C60A10704D5184BDA695C
:101340000AB1DB699847620704D5154B1A6A0AB1DE
:101350001B6A9847230704D5114B5A6A0AB15B6A86
:101360009847E00604D50E4B9A6A0AB19B6A9847E3
:10137000A10604D50A4BDA6A0AB1DB6A984762060D
:1013800004D5074B1A6B0AB11B6B9847230604D58B
:10139000034B5A6B0AB15B6B984710BDA0B0044079
:1013A000F4E8FF1F104B10B51C681C60E00604D564
:1013B0000E4B9A6B0AB19B6B9847A10604D50B4B59
:1013C000DA6B0AB1DB6B9847620604D5074B1A6CDF
:1013D0000AB11B6C9847230604D5044B5A6C0AB11A
:1013E0005B6C984710BD00BFA0C00440F4E8FF1F2D
:1013F000014B1A681A607047A0D00440014B18686E
:10140000704700BF00D00340044B054900221A601A
:101410000A60044A106010221A60704714D003401A
:1014200004D0034000D0034000280EDB02024FF43A
:101430008073B2F5004F06D3013B012BC0EB0201D4
:1014400001D00A46F5E7120A10E0404202024FF4CA
:101450008073B2F5014F06D3013B012BC0EB0201B3
:1014600001D00A46F5E7120AC2F58072013B024933
:1014700042EA03220A6070470CD0034018B11028DA
:1014800028BF102000E00120014B1870704700BFFA
:101490008CE7FF1F10B500234FF437721A419142B9
:1014A00002D80133072BF7D1154A1A4102EB51023A
:1014B000B2FBF1F101394FF6FF72914228BF11469C
:1014C000C21E012A06D80F4A0F4C0020106020606F
:1014D0000E480FE0421F012A06D9A0F10902012A95
:1014E00002D91438032809D8094A0A4C0020106090
:1014F0002060094843F008030160136010BD00BF7D
:10150000006CDC020090034004900340089003400C
:10151000008003400480034008800340112810B578
:1015200018D80D4A52F8303093F880423CB101226D
:1015300011B183F8802010BD83F8002110BD02EBAB
:10154000C00043681A6811B142F0030201E022F0C2
:1015500002021A6010BD00BF98470000112806D88B
:10156000044B53F8303093F80002C0B270470020AB
:10157000704700BF98470000112816D80B4A02EBAD
:10158000C00301295B6852F8302004D182F8801230
:101590004FF4A27208E0002082F8800211B94FF4E3
:1015A000807201E040F203121A6070479847000011
:1015B00010B57F290446D4BF00210121FFF7AEFFFB
:1015C00020460121BDE81040FFF7D6BF2DE9F041CC
:1015D00007460E4690460824012505EA08013846CC
:1015E000FFF79CFF30460121FFF798FF30460021AE
:1015F000FFF794FF6D00013CEDB2EED1BDE8F08144
:101600002DE9F04107460E4690460824802505EA5C
:1016100008013846FFF782FF30460121FFF77EFFC1
:1016200030460021FFF77AFF013C4FEA5505EED125
:10163000BDE8F08112B91A46FFF7C8BF1A46FFF796
:10164000DFBF2DE9F04180460F4608240025012622
:1016500038460121FFF762FF4046FFF77FFF00B1E8
:10166000354338460021FFF759FF7600013CF6B2BA
:10167000EED12846BDE8F0812DE9F04180460F46C5
:1016800008240025802638460121FFF747FF404601
:10169000FFF764FF00B1354338460021FFF73EFFF6
:1016A000013C4FEA5606EED12846BDE8F0810AB962
:1016B000FFF7C7BFFFF7E0BF72B60B4B0B491A68C5
:1016C0000B4B9B6C096862B6490102D5322A88BF70
:1016D0000133C2F53B4230217F32B2FBF1F24FF4CD
:1016E0007A7000FB0320704718E000E004ED00E092
:1016F000F4E8FF1F38B50446FFF7DEFF054664B186
:10170000FFF7DAFF401BB0F57A7F03D3013C04D02A
:1017100005F57A7500F0ECFEF2E738BD10B5FFF77D
:101720006DFD124B124A134C00204BF6FF711860EE
:10173000596028231360936013619361136293626D
:10174000136393630922226004F5805404342060FB
:101750000948016009490B608B60094B04201A603D
:10176000FFF7C8FFBDE8104000F0ECBC0480034068
:101770000C80034000800340089003400C9003401D
:101780000090034070B50546C1EBC1042B782BB126
:10179000013CFBD1002070BD013CFBD02B78002B1D
:1017A000FAD0FFF789FF06462B7813B1013CFBD135
:1017B000F0E7FFF781FF801B70BD70B50546C1EBF8
:1017C000C1042B782BB9013CFBD1002070BD013C3A
:1017D000FBD02B78002BFAD1FFF76EFF06462B7853
:1017E00013B9013CFBD1F0E7FFF766FF801B70BD2A
:1017F00011280BD8064B53F8300000F5007011B1DA
:101800001146FFF7BFBF1146FFF7D7BF0020704753
:101810009847000030B5184922230B7003234B7002
:10182000164B85B01B680393154B1B680293154B31
:101830001B680193144B1B680093144B00221DF886
:101840000200013243401248102A00FB03F3F6D194
:1018500000221DF8020043400D4843431A20B3FB09
:10186000F0F501EB420400FB153001324130102A43
:101870006080EED105B030BDD8E7FF1F5480044032
:10188000588004405C80044060800440C59D1C81F9
:101890009301000170B50C4B0C4C1A7842F0020514
:1018A00004EBC50682F00102706058781A700028B7
:1018B0000CBF8826C82680F0010046EA0141587016
:1018C00044F8351070BD00BF40E9FF1F00E0FF1F66
:1018D000024B187800F00100704700BF22EAFF1F9A
:1018E000024B1878C0F34000704700BF22EAFF1F88
:1018F0000138022807D8054B03EB80004068003010
:1019000018BF012070470020704700BF40E9FF1F4B
:10191000431E022B10B50ED8084A02EB8302506812
:1019200050B141685160064A018832F81340611A8B
:1019300022F8131010BD002010BD00BF40E9FF1FAA
:1019400084FAFF1F431E022B10B510D872B6094A45
:1019500002EB8302506840B141685160064A018839
:1019600032F81340611A22F8131062B610BD00203D
:1019700010BD00BF40E9FF1F84FAFF1F0138022895
:101980000CD8074B03EB8000036972B600201BB133
:101990001A885B681044FAE762B670470020704707
:1019A00040E9FF1F013802280BD872B6064B03EB43
:1019B00080000369002013B101305B68FBE762B669
:1019C00070470020704700BF40E9FF1F10B572B696
:1019D0000123174A1A4412F8012C12071CD599004A
:1019E000144A52F831402CB902EB431308305860C6
:1019F000114B09E041F0010152F8314064B902EBAA
:101A0000C103083058600D4B42F831300C4B1A7F3F
:101A1000013A1A7762B610BD0133042BD9D162B6F0
:101A2000074B00221A77BDE8104000F0F5BB00BF5D
:101A30002848000000E0FF1F88004000C800400068
:101A400040E9FF1F421E022A30B531D8194B400130
:101A500040F01000184472B6174CA3185B7F032B9C
:101A600009D8DFE803F0130215050830022310E05F
:101A7000083004230DE09200A318186908B9196111
:101A800001E01B6A59602244116210E0032300E068
:101A90000523224410F0080F537701F108030A8848
:101AA00043600CBF8823C82343EA0243036062B645
:101AB00030BD00BF00E0FF1F40E9FF1F2DE9F84FD8
:101AC000B44E3478E4B214F0040F354610D0B24B63
:101AD00093F8343053B1B14A117801F0FF0329B1C2
:101AE000013BDBB213700BB900F0E4FC042333704C
:101AF00004F0080303F0FF02002B00F0D882A84B8B
:101B0000A84D1A78D2B214094FEA920840F02F82F9
:101B100005EBC803596855F83830C3F38303013B1C
:101B20000C2B00F22082DFE813F0E501E5011E0234
:101B30001E021E021E021E021E02FA011E021E02CA
:101B40001E020D00944C0A684B68E363964B45F8FF
:101B50003830A26340F2A15392B200214FF0010845
:101B60009A4221642961A96184F80180274600F026
:101B70007C811DD8B2F5817F00F0E88009D8802AE9
:101B800000F0CE80822A00F0D080212A40F07D81B2
:101B900074E140F2A1339A4200F05481B2F5A06F93
:101BA00000F0778140F202339A4200F0E0806CE16D
:101BB000B2F5106F21D010D8B2F5D06FC0F06581AA
:101BC00040F281639A4240F20181B2F5086F08BF8A
:101BD00094F8343000F04E8157E142F221239A42CA
:101BE00000F00D8142F221339A4200F0528142F21C
:101BF00021039A4200F07B8147E1DFF8A88194F845
:101C00003A3084F8343008F16009D8F820301B06E7
:101C100004D5D8F82400083800F0FEFA08F10808C6
:101C2000C845F2D14FF00008C146DFF89CA158F832
:101C30000A0028B1D0F804B000F0EEFA5846F8E7F0
:101C40005A4B4AF80800A3F1340A48F8030058F840
:101C50000A0028B1D0F804B000F0DEFA5846F8E7E0
:101C6000534B544A48F80300033B22F8190019F873
:101C700003204AF80800023A032A08D8DFE802F0F5
:101C800002040204002200E0012203F8092009F105
:101C90000109B9F1030F08F10408C6D10023237725
:101CA0004FF00108444A454B4244434412F8012C8A
:101CB0009B0012F0080F1A704FEA880921D000F03B
:101CC0008DFA38B105EB4813083058603C4B45F8A5
:101CD000393004E03B7F45F8390001333B7700F0B1
:101CE0007DFA49F0010338B105EBC30208305060BA
:101CF0002D4A45F8332004E045F833003B7F01339B
:101D00003B7749F0020208F1010849F0030900237A
:101D1000B8F1040F45F8323045F83930C2D1B9E096
:101D200084F82C1084F82D10B6E0A38F032B00F25A
:101D3000AC809A00234B84F82C1084F82D109B5C07
:101D40009D0740F1A98084F82C80A5E0A28F02F0C5
:101D50007F03032B00F39980638F002B40F0958065
:101D60009100184A0A44117821F002010FE0A28F75
:101D700002F07F03032B00F38880638F002B40F079
:101D8000848091000F4A0A44117841F002011170D9
:101D900080E000BF8020074040E9FF1F21EAFF1FCD
:101DA0009020074000E0FF1FC800400084E9FF1FAB
:101DB00060E9FF1F84FAFF1F2848000030C80110A7
:101DC00088004000C020074044E9FF1F628FA18FB8
:101DD000A64B53F8085CA3F10C00002D55D033F846
:101DE0000C7C974209D133F80A7C8F4205D1120A44
:101DF000032A0CBF2B78038951E00C33E9E79C4B95
:101E000094F83A201A70FFF76BFD9A4D48B1FFF72E
:101E10005FFD30B9984BC3F8008002232B60034666
:101E200038E0FFF75DFD074648B9FFF751FD30B1D7
:101E3000914B02221A6001232B603B462AE00323C8
:101E40002B6026E0A38F022B1FD194F8503084F82A
:101E5000303084F82C1084F82D8084F82E1084F80B
:101E60002F1084F83110062317E0A38F022B0CD11A
:101E700094F8503084F82C3043460EE0A38F022BA8
:101E800003D184F850800B4604E07C4B0F221A707B
:101E90002DE000231D4602E0022307F12C05B4F8D3
:101EA0003E80434538BF9846B8F1400F34BF47469F
:101EB000402728463946FFF7EDFCB8EB07083D44BC
:101EC00003D1402F13D1474604E0B8F1400F34BF8F
:101ED0004746402728463946FFF7DCFCB8EB0708A1
:101EE0003D4401D1402F02D12564A4F85280012243
:101EF000634B37E0634B1A8F42F221039A420AD1B7
:101F00000023614AC85C98540133072BF9D10020A3
:101F10000146FFF7BFFC5D4B45F8383023E0594CD4
:101F2000276CA7B1B4F85280B8F1400F34BF4546D2
:101F3000402538462946FFF7ADFCC5EB08039BB2A8
:101F4000A4F852300BB9402D00D17B192364228FA5
:101F50004C4BB2F5A06F06D1002283F8392093F8DC
:101F60003A204B4B1A70464B01221A709CE005EB4D
:101F7000C807013C7B6802F00802A3F10800E4B244
:101F800002F0FF01002A40D000F046F93D4B03EB80
:101F9000840C1819DCF810200AB35168CCF8101022
:101FA00002F108017960417F03290FD8DFE801F0D1
:101FB0000205080B1C44032307E01C44022304E031
:101FC0001C44052301E01C440423637717F0080F29
:101FD00012880CBF8823C82343EA024362E0427F91
:101FE000032A0AD8DFE802F0606002051C440023DF
:101FF00001E01C440123637756E017F0080F1C44EE
:102000000CBF0222032262774EE055F83820120CF2
:1020100023F8082C002A3FD0DFF868C023F8061CFC
:102020004FEA840E43F8041C0CEB0E014B680BB90D
:10203000486001E04B6C58600CEB0E03DFF84490F5
:102040005864144B33F814100A4423F8142000F099
:10205000C5F810B1083078601EE099F81C3045F8DA
:102060003800013389F81C301EE000BF38480000FA
:1020700022EAFF1F44F00F4048F00F40C020074005
:102080009420074040E9FF1F8CFAFF1FC800400062
:102090009820074084FAFF1F214B224A17F0080FAF
:1020A00008BF134645F838300823337008E5E007C9
:1020B00020D51D4C1D481B4E21460223037001F8FC
:1020C000542B1B4B94341E6059601A619A619E60B8
:1020D000DC60184B0D2119701749FF230B702B7012
:1020E0000A74164A1370164B9F221A70012303704C
:1020F000BDE8F88F210604D50E4B0D221A708023FF
:102100002B70A20705D50C4B1A78D2B21A70022395
:102110002B70E30644BF10232B70BDE8F88F00BF7F
:10212000C80040008800400040E9FF1F942007409D
:1021300000E0FF1FC0200740882007408C20074098
:102140008420074008B5FFF765FB00231C4A0021E7
:102150009950D0180833682B4160F7D1194B196892
:1021600041F48021196003F52833D8338021197098
:10217000187815490006FBD4144BC2F307201870D9
:10218000C2F30740120E18751A76114AFF23137016
:10219000137202F8703C0B7843F040030B7001237C
:1021A0000021137582F8801013710A4B70221A7087
:1021B000A3F21F3308221A60074B10221A7008BDC1
:1021C00000E0FF1F348004400C2107409C200740A2
:1021D0008020074023E400E00821074072B60C4A43
:1021E0001168B1FA81F3182B02D962B6002070474A
:1021F0004FF00040D84021EA0001116062B6054965
:1022000048225343C8180022CA504260704700BF9A
:10221000C0E8FF1F80E0FF1F0C4B4822C31AB3FB2E
:10222000F2F3182B11D80A4A127822B1094A12780F
:102230000AB1FFF7CBBB72B6074A4FF0004121FA53
:1022400003F311681943116062B6704780E0FF1F05
:102250005CE9FF1F74E9FF1FC0E8FF1F10B5104CB9
:1022600023686BB120684288531C0244147A0288A8
:10227000934212D3FFF7D0FF094B00221A600DE002
:10228000084B1B7813B94FF0FF3010BD0220FFF749
:1022900059FB20600028E5D1F5E74380204610BDBA
:1022A00014EAFF1F74E9FF1F10B50B4C236813B12C
:1022B00023686BB902E0094B1B7813B94FF0FF306C
:1022C00010BD0220FFF73EFB20600028F0D1F5E7AB
:1022D0005A881344187A10BD14EAFF1F74E9FF1FCF
:1022E000044B5888044B1B681BB11A885B88D31AAF
:1022F0001844704784FAFF1F14EAFF1F2DE9F041CC
:1023000080460E460027002E2ED0194B1B785BB35B
:10231000184C236825464BB90220FFF713FB2860B1
:1023200010B3038813B9FFF777FFF5E724686188D6
:1023300025886D1AAE4238BF3546083140462A46D8
:10234000214402F045F96388A8442F44761B1D44BC
:102350002388ADB2AB426580D5D82046FFF75CFF3D
:10236000044B00221A60CEE73846BDE8F08100BF7A
:1023700074E9FF1F14EAFF1F10B5094B1B786BB1FE
:10238000084C206818B1FFF747FF002323600220A4
:10239000FFF7D8FA10B1FFF73FFFF8E710BD00BF15
:1023A00074E9FF1F14EAFF1FF8B5284C0123064605
:1023B0000D462371002D46D0A3680BBB47F2095789
:1023C000234B1B7803F0FF020BB9227112E00320AC
:1023D000FFF7E8FA072807D801232371FFF7FEFE6D
:1023E000A06068B9194B1871013F01D0237B23B15C
:1023F000012323734FF0FF30F8BD00F079F8DFE7D9
:10240000A1684888C0F14002954238BF2A4600F1D1
:1024100008070023104423730F444880AD1A9342E9
:1024200003D0F05CF8540133F9E71E444B883F2B8E
:1024300006D940230B800320FFF704FB0023A36091
:1024400005236373B6E725712846F8BD14EAFF1F1C
:1024500074E9FF1F07B502AB012103F8010D18460F
:10246000FFF7A2FF03B05DF804FB70B50F4B1B78BC
:10247000D3B10F4CA568012626714DB100266B889B
:10248000667303202B802946FFF7DCFAA66009E07B
:10249000FFF7A4FE014620B103206573FFF7D2FACF
:1024A00000E066730023237170BD00BF74E9FF1F55
:1024B00014EAFF1F38B50D4C237903F0FF059BB9D3
:1024C000A16831B14B880B800320FFF7BBFAA560F0
:1024D00038BDFFF783FE014620B10320BDE8384038
:1024E000FFF7B0BA0123637338BD00BF14EAFF1FC2
:1024F0007047FFFF184B1A6842F480621A60174B4E
:1025000000221A705A709A70DA701A71144B40F2E5
:1025100013221A604FF411725A60124BC0F3443206
:102520001A70C0F347125A7000F01F000E4A9872DA
:102530000221042313705174D3740C4B88221A7037
:102540003C2203F80D2C0A4B40221A70A3F5447369
:102550004FF480321A6070473480044024EAFF1F31
:102560000490044000A0064002A0064010A00640CF
:1025700010E400E0134A137800F0030103F0EC03C9
:102580000B43410748BF43F01003137000F00F03E3
:10259000042B0D4B03D11A7842F040021A700B49FC
:1025A0000A7810F0100F02F0EF0218BF42F010028C
:1025B0000A701A78810602F0EF0248BF42F010025A
:1025C0001A70704702A0064006A0064005A006400B
:1025D00008B50D4B1B685B0500D408BD0B4B197982
:1025E00001F0FF0211B1FFF783FFF7E708494FF44D
:1025F00080300860074908480A7040F20311016002
:1026000041601A705A7008BD3480044024EAFF1FEC
:1026100080E100E003A006400490044070B5044649
:10262000094D2B7903F0FF06002BF9D1204601213B
:10263000FEF7A2FF20463146FEF770FF034B53F82A
:102640003430AB6070BD00BF24EAFF1F9847000024
:10265000F8B51C4B1B685A05074631D51A4EB368AE
:102660000BB101221A70B4780134402C28BF002429
:10267000F378154DA34219D1FEF7A2FD402810DCD6
:10268000124B1B781B06F3D5EB780133402B28BF88
:102690000023F218DBB2117B0D4AC9B21170F3703E
:1026A000E6E7FF28E4DDFFF723FFE1E72B19FFB2A0
:1026B0001F7301232B71074BE4B2BC22AC701A705C
:1026C000F8BD00BF3480044024EAFF1F04A0064088
:1026D00007A0064003A0064000F00F00092894BFA1
:1026E00030303730FFF7B4BF2DE9F843234B1B6878
:1026F0005A05074689463FD5214CA3680BB10122F4
:102700001A703E4607EB09039E4232D2A57894F830
:1027100003800135402D28BF00255FFA88F8A845C1
:102720001ED1184BBC221A70FEF74AFD402810DC5F
:10273000154B1B781B0610D5E3780133402B28BFBF
:102740000023E218DBB2117B104AC9B21170E370AA
:1027500003E0FF2801DDFFF7CBFEE3784345E3D03C
:10276000631916F8012B1A73EDB201232371A570BA
:10277000C8E7044BBC221A70BDE8F88334800440DB
:1027800024EAFF1F03A0064004A0064007A006405D
:1027900008B5034B1B7913B1FFF7AAFEF9E708BD93
:1027A00024EAFF1F044A10785378C0B2DBB2984283
:1027B00038BF4030C01A704724EAFF1F094A117819
:1027C0005378DBB2994209D00133402B28BF002354
:1027D000D118DBB291F84C00537070474FF0FF30C6
:1027E000704700BF24EAFF1F084A11785378DBB214
:1027F000994208D00133402B28BF0023134493F89B
:102800004C00C0B270474FF0FF30704724EAFF1F02
:102810000A4B1B685B050FD5094B1A7802F0CB02F7
:102820001A70084A402111701A7842F034021A7066
:10283000054B5A78D2B21A70704700BF34800440FA
:1028400003A0064011A0064024EAFF1FF0B52F4A5E
:10285000137813F0300F25D072B62D4B2D4D1B7809
:1028600003F0FF042BB92B782B4B4021197062B673
:1028700018E062B6294B19785E78C9B2F6B21846EC
:102880004B1C402B2F7828BF0023B342FFB203D04C
:10289000C11881F84C701946631E13F0FF04EFD184
:1028A000C9B201701E4B1878C0B206061FD5137846
:1028B0001D061CD519498E78CB78F6B2DBB2B3422F
:1028C0000DD00133402B28BF00231478CC18257B72
:1028D000104CEDB225700D342478072CEFD9DBB203
:1028E000CB7013781C0602D50D4B7C211970410664
:1028F0000BD513785B0608D5084B00221A719B682C
:1029000003B11A70064B3C221A70F0BD04A00640B9
:1029100016A0064007A0064011A0064024EAFF1FAB
:1029200003A0064038B5451E15F8014F44B10A2CE6
:1029300002D10D20FFF78CFE2046FFF789FEF3E75A
:1029400038BD10B504460009FFF7C6FE2046BDE8B5
:102950001040FFF7C1BE10B50446000AFFF7F1FFB3
:102960002046BDE81040FFF7ECBF10B50446000E4E
:10297000FFF7E7FF200CFFF7E4FF200AFFF7E1FF76
:102980002046BDE81040FFF7DCBF00BF174B1A68B8
:1029900042F400621A60164B00221A705A709A7044
:1029A000DA701A71134B40F213321A60124BC0F3F3
:1029B00044321A70C0F347125A7000F01F0004220C
:1029C00098729A700D4A0123137093700C4B8822F1
:1029D0001A703C2203F80D2C0A4B40221A70A3F205
:1029E00012334FF480221A60704700BF34800440D5
:1029F000B0EAFF1F0CB0044000B0064013B0064020
:102A000010B0064012E400E0134A137800F003010E
:102A100003F0EC030B43410748BF43F0100313706E
:102A200000F00F03042B0D4B03D11A7842F0400243
:102A30001A700B490A7810F0100F02F0EF0218BF5D
:102A400042F010020A701A78810602F0EF0248BFC5
:102A500042F010021A70704702B0064006B00640FD
:102A600005B0064008B50D4B1B681B0500D408BD1A
:102A70000B4B197901F0FF0211B1FFF739FDF7E7B0
:102A800008494FF480200860074908480A7040F25E
:102A90000311016041601A705A7008BD348004400F
:102AA000B0EAFF1F80E100E003B00640049004405C
:102AB00070B50446094D2B7903F0FF06002BF9D1C0
:102AC00020460121FEF758FD20463146FEF726FD3F
:102AD000034B53F83430AB6070BD00BFB0EAFF1F4A
:102AE00098470000F8B51B4B1B681A0507462FD501
:102AF000194EB3680BB101221A70B578D5F10105F2
:102B000038BF0025F378144CAB4218D1FEF758FBC0
:102B100040280FDC114B1B781B06F3D5E378D3F16B
:102B2000010338BF0023E218117B0D4AC9B21170AE
:102B3000E370E7E7FF28E5DDFFF7DAFCE2E763197A
:102B4000FFB21F7301232371064BA570BC221A70BC
:102B5000F8BD00BF34800440B0EAFF1F04B0064057
:102B600007B0064003B006402DE9F843224B1B682E
:102B70001A05074689463DD5204CA3680BB10122B2
:102B80001A703D4607EB09039D4230D2A67894F8AF
:102B90000380D6F1010638BF00265FFA88F8B045F9
:102BA0001DD1174BBC221A70FEF70AFB40280FDC20
:102BB000144B1B781B060FD5E378D3F1010338BF04
:102BC0000023E218117B104AC9B21170E37003E0D0
:102BD000FF2801DDFFF78CFCE3784345E4D0A3191F
:102BE00015F8012B1A7301232371A670CAE7044B51
:102BF000BC221A70BDE8F88334800440B0EAFF1F9D
:102C000003B0064004B0064007B0064008B5034BC9
:102C10001B7913B1FFF76CFCF9E708BDB0EAFF1FA1
:102C2000044A10785378C0B2DBB2984238BF803083
:102C3000C01A7047B0EAFF1F084A11785378DBB218
:102C4000994208D00133802B28BF0023D118DBB272
:102C5000887B537070474FF0FF307047B0EAFF1F1A
:102C6000084A11785378DBB2994207D00133802BA0
:102C700028BF00231344987BC0B270474FF0FF3049
:102C8000704700BFB0EAFF1F0A4B1B681B050FD53A
:102C9000094B1A7802F0CB021A70084A40211170D1
:102CA0001A7842F034021A70054B5A78D2B21A7070
:102CB000704700BF3480044003B0064011B00640A6
:102CC000B0EAFF1FF0B52E4A137813F0300F24D06E
:102CD00072B62C4B2C4D1B7803F0FF042BB92B78CC
:102CE0002A4B4021197062B617E062B6284B19785A
:102CF0005E78C9B2F6B218464B1C802B2F7828BFDD
:102D00000023B342FFB202D0C1188F731946631E6D
:102D100013F0FF04F0D1C9B201701E480478E4B288
:102D200027061ED513781E061BD519498F78CB7838
:102D3000FFB2DBB2BB420DD00133022B28BF002310
:102D40001578CD182E7B104DF6B22E700D352D78DE
:102D5000072DEFD9DBB2CB7013781D0644BF7C235F
:102D6000037061060AD513785B0607D5084B00226D
:102D70001A719B6803B11A703C230370F0BD00BF49
:102D800004B0064016B0064007B0064011B0064039
:102D9000B0EAFF1F03B0064038B5451E15F8014FD5
:102DA00044B10A2C02D10D20FFF79CFE2046FFF70C
:102DB00099FEF3E738BD00BF0B4B4CF220521A804E
:102DC0004DF628121A8000BF00BFD32223F80E2C24
:102DD00000221A814FF4B77223F80A2C4FF458528C
:102DE00023F8082C704700BF0E20054070B590B046
:102DF000FFF7E2FF00F084F800F0B0F8D020FFF712
:102E000079FB0020FFF7B6FB40F2A110FFF7BEFDF3
:102E10000020FFF7F9FD4FF07E51324800F070F9C5
:102E2000304800F0DFFBFF2100200A4600F068FC7C
:102E30002D4B1B78002B37D172B62C4B4AF2026215
:102E40001A804BF280421A8062B6FFF749FA90B1BD
:102E5000FFF746FA3C28B4BF04463C24214601A8AB
:102E6000FFF74CFA01A82146FFF73EFCEDE730469C
:102E70002946FFF799FAFFF795FC70B1FFF792FC2E
:102E800000243C28B4BF05463C25AC4201AEEEDA36
:102E9000FFF794FC30550134F7E7FFF7C1FE002837
:102EA000C6D000F0E9F8C3E7114B124A1A60124B82
:102EB0001A680192019A18460A3201680091009935
:102EC000914209D272B6094B4AF2026119804BF263
:102ED0008041198062B6F0E772B6084B00221A7082
:102EE000FEE700BFBCEBFF1F90E9FF1F0C20054071
:102EF000FC1F0020464362743CE9FF1F0821074085
:102F0000064B1A6842F003021A60032243F8102CA1
:102F1000034A4FF4A27313605360704754F00F409C
:102F200000A00440FFFFFFFF10B50446007800F04A
:102F300009FE07A3D3E9002300F094FF01F07AF81B
:102F40000146054800F0DCF800232370012010BD85
:102F50000000000000E06F40BCEBFF1F044B0122AB
:102F60001A6000225A609A60DA601A61704700BFE6
:102F700040EBFF1F13B5FFF75FFEC0B2FF281E4CEA
:102F80004FF0000324D06168E3604A1C2144022A08
:102F9000626008752EDD6360A3683F2B2ADC174949
:102FA0001940002903DA013961F007010131607D20
:102FB00000900822A07D019093FBF2F21048237D3F
:102FC000C9B2D2B200F07DF8A3680133A36011E06A
:102FD0006360A360E3680133012BE36002D108481A
:102FE00000F080F9E268044B082A03DD02221A602F
:102FF00000221A6102B010BD40EBFF1F07000080E5
:10300000BCEBFF1F10B5FFF717FE194B1A69C0B2D2
:103010000AB9FF282BD0511C1A441961D075DC7DE8
:10302000144B13F80C0CFF28A3F10C0203D1BDE8DC
:103030001040FFF793BFA04203F10C03F1D1536896
:10304000994214DB0A4C936804F11800984708B1C0
:10305000502000E04620FFF745FD207EFFF742FDAF
:10306000217E04F119000131FFF77EFDDFE710BD7D
:1030700040EBFF1FD0E8FF1F054B1B68012B03D05F
:10308000022B03D1FFF7BEBFFFF774BFFFF766BF88
:1030900040EBFF1FAFF3008000F10F0300F1CF0101
:1030A000002203F8032C03F8022C03F8012C03334D
:1030B0008B42F5D14FF07E530360704790F8B20E0B
:1030C0007047072910B50ED8072A0CD801EBC201AA
:1030D00001EB41010831084403719DF80830437148
:1030E0009DF80C30837110BD01EBC20202EB42026D
:1030F00010441A8882819B78837370470C30704724
:1031000001607047006870472DE9F04F93B00446A6
:10311000059210460E464FF4C062002101F0F2FA0B
:103120006E4B246818681190029400250024305DCD
:103130006A4F01F089F80146029801F0D9F801F0D0
:1031400027FA80B207EB400006EB040AB0F80490BF
:103150009AF8010001F078F80146029801F0C8F8E9
:1031600001F016FA80B207EB4000B0F804809AF83C
:10317000020001F069F80146029801F0B9F801F087
:1031800007FA80B207EB4007554ABB88A75C224488
:103190000DF1480C507891784FEA6902069209F0D7
:1031A000030262444FEA630B12F8042C099208F000
:1031B0000302624403F00303634412F8042C13F87F
:1031C000043C0A920C224FEA680A0B93B7FBF2F315
:1031D000CDF81CA05FFA83FA02FB1373DBB20C93E9
:1031E000B1FBF2F7B0FBF2F302FB130002FB171284
:1031F000D2B2C0B2CDF820B0CDF80CA00D900E9296
:103200006FF001025B0002FB0AF204930F927F0051
:1032100000230398DDF81CC0DDF818B00899DDF82C
:1032200014A028444CFA03F84BFA03F941FA03FCC2
:1032300000EB430009F0010908F001080CF0010C53
:103240000AEB4000002213F0FF0F10D1DDF828C078
:10325000DDF824B00B994CFA02F84BFA02F941FA66
:1032600002FC09F0010908F001080CF0010CDDF87E
:1032700030B0018809FA0BFA4AEA01010180DDF851
:1032800034A00F9908FA0AFB0144DDF810A031F8C8
:103290000AA04BEA0A0BDDF810A021F80AB0DDF80D
:1032A00038A00CFA0AFB31F807A001324BEA0A0AEF
:1032B000042A21F807A000F5C070C4D101330C2BFB
:1032C000A7D10334182C7FF432AF1835C02D06F186
:1032D00018067FF42BAF13B0BDE8F08F98480000BC
:1032E000DCE8FF1F90F8B23E10B504463BB900F190
:1032F0000C018268FFF708FF012384F8B23E10BD7D
:10330000094A022340F2011113805180536007499A
:1033100000239360D16013825361054B1A8892B2E7
:1033200042F402421A807047049000400880034033
:103330001E900040094A022340F20111138051807F
:103340005360074900239360D16013825361054B9A
:103350001A8892B242F404421A80704724900040C6
:10336000188003403E9000400B4B0C4901221A800C
:1033700000230B80C1F80220094A01F576217A3139
:10338000136051601381D360064B1A8892B242F4E5
:1033900006421A80704700BF4490004046900040AB
:1033A0004C9000405E900040074B084902221A8072
:1033B00040F201125A8004225A60054A0023136029
:1033C00051601381D36070476490004034C0024064
:1033D0006C900040054B1960054992B2DA820A8070
:1033E000DA8A92B242F40242DA82704700900040D8
:1033F0001E900040054B1960054992B2DA820A809E
:10340000DA8A92B242F40442DA8270472090004095
:103410003E900040054B1960054992B2DA820A805D
:10342000DA8A92B242F40642DA8270474090004053
:103430005E900040024B92B21960DA82DA837047E4
:103440006090004030B50023DC4364010C21E4B2FD
:1034500001FB030101228D1801320D2A85F8CC4CA5
:10346000F9D10133082BEFD190F82B3D80F82C3D9A
:1034700030BD70B50546002400220223412B05EB28
:10348000020105DCC3F17206A1F8F06D722603E0BB
:103490003026A1F8F06D9E190232182AA1F82E6D7F
:1034A0004FEA4303EAD10134082C05F11805E3D1B2
:1034B0007323A0F8B03E7223A0F8EE3D70BD90F8E3
:1034C000B23E10B5044643B18368426843600023AE
:1034D000826080F8B23E80F8B33E204604F55F611A
:1034E0006222FFF787FF204604F62E516222FFF783
:1034F00071FF04F6CC4161222046FFF78BFF94F860
:10350000B32E63684FF4C07101FB0233064A1360A7
:103510006023D382D38394F8B33E013303F00303D3
:1035200084F8B33E10BD00BF60900040024B0348DA
:1035300002221A70FFF7C3BF1F800040BCEBFF1FC1
:10354000154B1A6842F080721A60A3F57F43E83B7E
:1035500004221A60114A00231360D3645360104B95
:1035600069221A60DA6C42F08002DA640D4A0123A3
:10357000136002F588324FF451711160A2F5873261
:10358000A2F5FE722921116028219161D361064BB9
:1035900040F244421A6070473C800440008003407F
:1035A0000C8003401080034010C004400A4B1A688E
:1035B00042F480521A60094A4FF41073136053604A
:1035C000074B4FF000421A601A6842F440621A60DA
:1035D0004FF05942DA6070473C80044014B0044018
:1035E00000C002402DE9F041012104460F20FDF703
:1035F000C3FF10200121FDF7BFFF11200121FDF7BE
:10360000BBFF07200121FDF7B7FF01210720FDF7D0
:1036100085FF2046FFF716FF2046FFF72AFF2F4BB6
:103620001A6842F002021A602D4B00251D60DD76FB
:1036300003F582531C3302221A802A4B04221A609B
:10364000294B1A6842F002021A60A3F51C333C3B76
:1036500098221D7020461A70FFF7A8FF04F10C068F
:10366000204604F1CC0804F2CC67FFF769FF294635
:10367000C022C4F80480A76084F8B25E84F8B35E08
:10368000304601F03FF8204631464246FFF73CFD08
:103690003A4631462046FFF737FD2046FFF722FE27
:1036A0002046FFF72DFE2046FFF744FE2046FFF799
:1036B0005BFE2046FFF778FE2046FFF700FF0B4B2E
:1036C00065221A60642243F8102C53F8182C42F03B
:1036D000080243F8182CBDE8F08100BF4080044088
:1036E0000080004000E100E03C800440188003407E
:1036F0000148FFF7D1BC00BFBCEBFF1FFFFFFFFF7E
:103700002DE9F34180460E46174600250024E2B21B
:103710008DE8C0000848E9B243460134FFF7D1FC08
:10372000082CF4D10135082DF0D1034802B0BDE8D2
:10373000F041FFF7D7BD00BFBCEBFF1F37B5164800
:10374000FFF7DCFC0021C02200F0DCFF0025002494
:10375000AC420CBFFE230023E2B2009301930E485B
:10376000E9B20134FFF7ADFC082CF1D10135082D89
:10377000EDD10A4C206800F0F7F905A3D3E9002346
:1037800000F094F800F056FC206003B030BD00BF9C
:103790009A9999999999B93FBCEBFF1F70FAFF1F4D
:1037A00073B500250024174E736841F2883293FBED
:1037B000F2F39C42E1B24FF00003EAB206D10120DD
:1037C0008DF805308DF80400C82303E08DF804302F
:1037D0008DF805308DF806300B4801AB0134FFF74A
:1037E00083FC082CDFD10135ADB2082DDAD1726827
:1037F00049F64043013292FBF3F103FB112373605E
:1038000002B070BD70FAFF1FBCEBFF1F37B500257B
:1038100000240123E2B2009301931F48294601349A
:10382000FFF74FFC082CF4D10135EDB2082DEFD194
:103830001A4C1948FFF756FDA06800F095F910A33F
:10384000D3E9002300F032F800F0F4FBA060E06858
:1038500000F08AF90CA3D3E9002300F027F800F068
:10386000E9FBE060206900F07FF909A3D3E90023B8
:1038700000F01CF800F0DEFB206103B030BD00BF9B
:10388000333333333333D33F9A9999999999C93F55
:103890009A9999999999D93FBCEBFF1F70FAFF1F2C
:1038A00081F0004102E000BF83F0004330B54FEAF1
:1038B00041044FEA430594EA050F08BF90EA020F5E
:1038C0001FBF54EA000C55EA020C7FEA645C7FEAF1
:1038D000655C00F0E2804FEA5454D4EB5555B8BF14
:1038E0006D420CDD2C4480EA020281EA030382EA85
:1038F000000083EA010180EA020281EA0303362D17
:1039000088BF30BD11F0004F4FEA01314FF4801CE9
:103910004CEA113102D0404261EB410113F0004FFB
:103920004FEA03334CEA133302D0524263EB4303B2
:1039300094EA050F00F0A780A4F10104D5F1200E50
:103940000DDB02FA0EFC22FA05F2801841F10001AB
:1039500003FA0EF2801843FA05F359410EE0A5F17F
:1039600020050EF1200E012A03FA0EFC28BF4CF0B0
:10397000020C43FA05F3C01851EBE37101F0004566
:1039800007D54FF0000EDCF1000C7EEB00006EEB73
:103990000101B1F5801F1BD3B1F5001F0CD34908FD
:1039A0005FEA30004FEA3C0C04F101044FEA445254
:1039B00012F5800F80F09A80BCF1004F08BF5FEADB
:1039C000500C50F1000041EB045141EA050130BDBB
:1039D0005FEA4C0C404141EB010111F4801FA4F15E
:1039E0000104E9D191F0000F04BF01460020B1FAB3
:1039F00081F308BF2033A3F10B03B3F120020CDAEB
:103A00000C3208DD02F1140CC2F10C0201FA0CF0C8
:103A100021FA02F10CE002F11402D8BFC2F1200C2D
:103A200001FA02F120FA0CFCDCBF41EA0C019040E3
:103A3000E41AA2BF01EB0451294330BD6FEA04042C
:103A40001F3C1CDA0C340EDC04F11404C4F1200217
:103A500020FA04F001FA02F340EA030021FA04F329
:103A600045EA030130BDC4F10C04C4F1200220FA80
:103A700002F001FA04F340EA0300294630BD21FABE
:103A800004F0294630BD94F0000F83F4801306BF84
:103A900081F480110134013D4EE77FEA645C18BF78
:103AA0007FEA655C29D094EA050F08BF90EA020F0F
:103AB00005D054EA000C04BF1946104630BD91EA07
:103AC000030F1EBF0021002030BD5FEA545C05D10A
:103AD0004000494128BF41F0004130BD14F5800449
:103AE0003CBF01F5801130BD01F0004545F0FE41BD
:103AF00041F470014FF0000030BD7FEA645C1ABFF2
:103B0000194610467FEA655C1CBF0B46024650EA28
:103B1000013406BF52EA033591EA030F41F4002154
:103B200030BD00BF90F0000F04BF0021704730B5DA
:103B30004FF4806404F132044FF000054FF00001AF
:103B400050E700BF90F0000F04BF0021704730B570
:103B50004FF4806404F1320410F0004548BF404245
:103B60004FF000013EE700BF42004FEAE2014FEA9A
:103B700031014FEA02701FBF12F07F4393F07F4F75
:103B800081F06051704792F0000F14BF93F07F4FA7
:103B9000704730B54FF4607401F0004521F00041EA
:103BA00020E700BF50EA010208BF704730B54FF070
:103BB00000050AE050EA010208BF704730B511F075
:103BC000004502D5404261EB41014FF4806404F1AD
:103BD00032045FEA915C3FF4DCAE4FF003025FEA2F
:103BE000DC0C18BF03325FEADC0C18BF033202EBB7
:103BF000DC02C2F1200300FA03FC20FA02F001FA11
:103C000003FE40EA0E0021FA02F11444C1E600BFAF
:103C100070B54FF0FF0C4CF4E06C1CEA11541DBF62
:103C20001CEA135594EA0C0F95EA0C0F00F0DEF82D
:103C30002C4481EA030621EA4C5123EA4C5350EA12
:103C4000013518BF52EA033541F4801143F4801363
:103C500038D0A0FB02CE4FF00005E1FB02E506F0F4
:103C60000042E0FB03E54FF00006E1FB03569CF049
:103C7000000F18BF4EF0010EA4F1FF04B6F5007F4F
:103C800064F5407404D25FEA4E0E6D4146EB0606C1
:103C900042EAC62141EA55514FEAC52040EA5E504A
:103CA0004FEACE2EB4F1FD0C88BFBCF5E06F1ED8F4
:103CB000BEF1004F08BF5FEA500E50F1000041EB2B
:103CC000045170BD06F0004646EA010140EA0200D8
:103CD00081EA0301B4EB5C04C2BFD4EB0C0541EAFA
:103CE000045170BD41F480114FF0000E013C00F30F
:103CF000AB8014F1360FDEBF002001F0004170BD33
:103D0000C4F10004203C35DA0C341BDC04F114044B
:103D1000C4F1200500FA05F320FA04F001FA05F2D7
:103D200040EA020001F0004221F0004110EBD370A4
:103D300021FA04F642EB06015EEA430E08BF20EAD0
:103D4000D37070BDC4F10C04C4F1200500FA04F373
:103D500020FA05F001FA04F240EA020001F0004105
:103D600010EBD37041F100015EEA430E08BF20EA78
:103D7000D37070BDC4F1200500FA05F24EEA020EC0
:103D800020FA04F301FA05F243EA020321FA04F0EF
:103D900001F0004121FA04F220EA020000EBD370A6
:103DA0005EEA430E08BF20EAD37070BD94F0000FA6
:103DB0000FD101F00046400041EB010111F4801FDA
:103DC00008BF013CF7D041EA060195F0000F18BF8B
:103DD000704703F00046520043EB030313F4801FC7
:103DE00008BF013DF7D043EA0603704794EA0C0F81
:103DF0000CEA135518BF95EA0C0F0CD050EA410697
:103E000018BF52EA4306D1D181EA030101F0004113
:103E10004FF0000070BD50EA410606BF104619463B
:103E200052EA430619D094EA0C0F02D150EA013647
:103E300013D195EA0C0F05D152EA03361CBF104688
:103E400019460AD181EA030101F0004141F0FE4127
:103E500041F470014FF0000070BD41F0FE4141F4AB
:103E6000780170BD70B54FF0FF0C4CF4E06C1CEAAB
:103E700011541DBF1CEA135594EA0C0F95EA0C0F60
:103E800000F0A7F8A4EB050481EA030E52EA03351B
:103E90004FEA013100F088804FEA03334FF080553C
:103EA00045EA131343EA12634FEA022245EA111569
:103EB00045EA10654FEA00260EF000419D4208BF1A
:103EC000964244F1FD0404F5407402D25B084FEAC7
:103ED0003202B61A65EB03055B084FEA32024FF473
:103EE00080104FF4002CB6EB020E75EB030E22BFD0
:103EF000B61A754640EA0C005B084FEA3202B6EB90
:103F0000020E75EB030E22BFB61A754640EA5C003E
:103F10005B084FEA3202B6EB020E75EB030E22BFCE
:103F2000B61A754640EA9C005B084FEA3202B6EBCF
:103F3000020E75EB030E22BFB61A754640EADC008E
:103F400055EA060E18D04FEA051545EA16754FEAF0
:103F500006164FEAC30343EA52734FEAC2025FEA0E
:103F60001C1CC0D111F4801F0BD141EA00014FF09D
:103F700000004FF0004CB6E711F4801F04BF01436E
:103F80000020B4F1FD0C88BFBCF5E06F3FF6AFAE8A
:103F9000B5EB030C04BFB6EB020C5FEA500C50F11A
:103FA000000041EB045170BD0EF0004E4EEA11319D
:103FB00014EB5C04C2BFD4EB0C0541EA045170BDA4
:103FC00041F480114FF0000E013C90E645EA060EE8
:103FD0008DE60CEA135594EA0C0F08BF95EA0C0F16
:103FE0003FF43BAF94EA0C0F0AD150EA01347FF45E
:103FF00034AF95EA0C0F7FF425AF104619462CE735
:1040000095EA0C0F06D152EA03353FF4FDAE104697
:10401000194622E750EA410618BF52EA43067FF4E8
:10402000C5AE50EA41047FF40DAF52EA43057FF478
:10403000EBAE12E74FEA4102B2F1E04324BFB3F521
:10404000001CDCF1FE5C0DD901F0004C4FEAC0020F
:104050004CEA5070B2F1004F40EB830008BF20F0F3
:104060000100704711F0804F21D113F13872BCBFAD
:1040700001F00040704741F480114FEA5252C2F102
:104080001802C2F1200C10FA0CF320FA02F018BF4B
:1040900040F001004FEAC1234FEAD32303FA0CFC9E
:1040A00040EA0C0023FA02F34FEA4303CCE77FEA2D
:1040B000625307D150EA01331EBF4FF0FE4040F477
:1040C0004000704701F0004040F0FE4040F4000026
:1040D000704700BF80F0004002E000BF81F0004167
:1040E00042001FBF5FEA410392EA030F7FEA226C9E
:1040F0007FEA236C6AD04FEA1262D2EB1363C1BF2E
:10410000D218414048404140B8BF5B42192B88BF9C
:10411000704710F0004F40F4000020F07F4018BFBF
:10412000404211F0004F41F4000121F07F4118BFDF
:10413000494292EA030F3FD0A2F1010241FA03FC87
:1041400010EB0C00C3F1200301FA03F100F000436F
:1041500002D5494260EB4000B0F5000F13D3B0F137
:10416000807F06D340084FEA310102F10102FE2AA6
:1041700051D2B1F1004F40EBC25008BF20F0010016
:1041800040EA03007047490040EB000010F4000FC4
:10419000A2F10102EDD1B0FA80FCACF1080CB2EB57
:1041A0000C0200FA0CF0AABF00EBC25052421843B6
:1041B000BCBFD0401843704792F0000F81F400015B
:1041C00006BF80F400000132013BB5E74FEA41032E
:1041D0007FEA226C18BF7FEA236C21D092EA030F9A
:1041E00004D092F0000F08BF0846704790EA010F14
:1041F0001CBF0020704712F07F4F04D1400028BF41
:1042000040F00040704712F100723CBF00F5000022
:10421000704700F0004343F0FE4040F40000704758
:104220007FEA226216BF08467FEA23630146420204
:1042300006BF5FEA412390EA010F40F48000704717
:104240004FF0000304E000BF10F0004348BF4042BD
:104250005FEA000C08BF704743F0964301464FF0F9
:1042600000001CE050EA010208BF70474FF0000355
:104270000AE000BF50EA010208BF704711F0004396
:1042800002D5404261EB41015FEA010C02BF844666
:104290000146002043F0B64308BFA3F18053A3F5C5
:1042A0000003BCFA8CF2083AA3EBC25310DB01FA0C
:1042B00002FC634400FA02FCC2F12002BCF1004F90
:1042C00020FA02F243EB020008BF20F00100704721
:1042D00002F1200201FA02FCC2F1200250EA4C0075
:1042E00021FA02F243EB020008BF20EADC707047BB
:1042F0004FF0FF0C1CEAD0521EBF1CEAD15392EAC9
:104300000C0F93EA0C0F6FD01A4480EA010C4002A4
:1043100018BF5FEA41211ED04FF0006343EA5010FE
:1043200043EA5111A0FB01310CF00040B1F5000F40
:104330003EBF490041EAD3715B0040EA010062F1EF
:104340007F02FD2A1DD8B3F1004F40EBC25008BFD9
:1043500020F00100704790F0000F0CF0004C08BFF7
:1043600049024CEA502040EA51207F3AC2BFD2F1C4
:10437000FF0340EAC250704740F400004FF00003D2
:10438000013A5DDC12F1190FDCBF00F0004070470C
:10439000C2F10002410021FA02F1C2F1200200FA4A
:1043A00002FC5FEA310040F1000053EA4C0308BF11
:1043B00020EADC70704792F0000F00F0004C02BF62
:1043C000400010F4000F013AF9D040EA0C0093F0DD
:1043D000000F01F0004C02BF490011F4000F013B37
:1043E000F9D041EA0C018FE70CEAD15392EA0C0FA5
:1043F00018BF93EA0C0F0AD030F0004C18BF31F010
:10440000004CD8D180EA010000F00040704790F0E5
:10441000000F17BF90F0004F084691F0000F91F089
:10442000004F14D092EA0C0F01D142020FD193EA4F
:104430000C0F03D14B0218BF084608D180EA0100D7
:1044400000F0004040F0FE4040F40000704740F0B3
:10445000FE4040F4400070474FF0FF0C1CEAD05281
:104460001EBF1CEAD15392EA0C0F93EA0C0F69D0DD
:10447000A2EB030280EA010C49024FEA402037D048
:104480004FF0805343EA111143EA10130CF000403F
:104490008B4238BF5B0042F17D024FF4000C8B422F
:1044A00024BF5B1A40EA0C00B3EB510F24BFA3EB0F
:1044B000510340EA5C00B3EB910F24BFA3EB9103DF
:1044C00040EA9C00B3EBD10F24BFA3EBD10340EA39
:1044D000DC001B0118BF5FEA1C1CE0D1FD2A3FF67F
:1044E00050AF8B4240EBC25008BF20F00100704734
:1044F0000CF0004C4CEA50207F32C2BFD2F1FF03D7
:1045000040EAC250704740F400004FF00003013A07
:1045100037E792F0000F00F0004C02BF400010F4AB
:10452000000F013AF9D040EA0C0093F0000F01F0BF
:10453000004C02BF490011F4000F013BF9D041EAE1
:104540000C0195E70CEAD15392EA0C0F08D1420214
:104550007FF47DAF93EA0C0F7FF470AF084676E7E7
:1045600093EA0C0F04D14B023FF44CAF08466EE7C0
:1045700030F0004C18BF31F0004CCAD130F000428E
:104580007FF45CAF31F000437FF43CAF5FE700BFE6
:1045900042000ED2B2F1FE4F0BD34FF09E03B3EBAD
:1045A000126209D44FEA002343F0004323FA02F0D9
:1045B00070474FF00000704712F1610F01D14202C5
:1045C00002D14FF0FF3070474FF00000704700BF3E
:1045D000844641EA000313F003036DD1403A41D30E
:1045E00051F8043B40F8043B51F8043B40F8043BCD
:1045F00051F8043B40F8043B51F8043B40F8043BBD
:1046000051F8043B40F8043B51F8043B40F8043BAC
:1046100051F8043B40F8043B51F8043B40F8043B9C
:1046200051F8043B40F8043B51F8043B40F8043B8C
:1046300051F8043B40F8043B51F8043B40F8043B7C
:1046400051F8043B40F8043B51F8043B40F8043B6C
:1046500051F8043B40F8043B51F8043B40F8043B5C
:10466000403ABDD2303211D351F8043B40F8043BFC
:1046700051F8043B40F8043B51F8043B40F8043B3C
:1046800051F8043B40F8043B103AEDD20C3205D30C
:1046900051F8043B40F8043B043AF9D2043208D004
:1046A000D2071CBF11F8013B00F8013B01D30B8876
:1046B00003806046704700BF082A13D38B078DD054
:1046C00010F003038AD0C3F10403D21ADB071CBF26
:1046D00011F8013B00F8013B80D331F8023B20F890
:1046E000023B7BE7043AD9D3013A11F8013B00F8C9
:1046F000013BF9D20B7803704B7843708B78837051
:1047000060467047F0B4840743D0541E002A3ED060
:10471000CDB2034603E0621E002C38D0144603F8E5
:10472000015B9A07F7D1032C2AD9CDB245EA0525BA
:104730000F2C45EA054515D9A4F110073F0903F1EF
:10474000100606EB07161A46156055609560D56091
:104750001032B242F8D104F00F040137032C03EBFE
:1047600007130DD91E462246043A032A46F8045B75
:10477000FAD8221F22F003020432134404F0030487
:104780002CB1C9B21C4403F8011BA342FBD1F0BCFD
:10479000704714460346C6E70000FE4300900440FD
:1047A0000400FE43049004400800FE4308900440C7
:1047B0000C00FE430C9004401000FE431090044097
:1047C0000008FE4300A004400408FE4304A0044087
:1047D0000410FE4304B004400810FE4308B0044037
:1047E0000C10FE430CB004401010FE4310B0044007
:1047F0001410FE4314B004401810FE4318B00440D7
:104800001C10FE431CB004401018FE4310C00440AE
:104810001418FE4314C004401818FE4318C0044086
:104820001C18FE431CC004401519150000010000AF
:10483000ADE8FF1F120000000002000050E8FF1F5B
:104840005D000000000300004CE8FF1F00000000B6
:104850000103090434E8FF1F0000000002030904FB
:104860001AE8FF1F0000000003030904D8E7FF1F38
:104870000000000004030904B0E7FF1F000000006F
:10488000060309048EE7FF1F00000000000000007F
:1048900000000000000000000001030F0000010004
:1048A00001000100020003000400060008000A00E5
:1048B0000C000F001200150018001C00200024003E
:1048C00028002D00320037003C00420048004E0016
:1048D00055005B0062006900710079008100890069
:1048E00091009A00A300AC00B500BF00C900D3003E
:1048F000DE00E800F300FF000A01160122012E018C
:104900003A014701540161016F017D018B01990159
:10491000A701B601C501D401E401F40104021402A7
:10492000240235024602570269027B028D029F0271
:10493000B102C402D702EA02FE02120326033A03BE
:104940004F03630378038E03A303B903CF03E50387
:10495000FC0313042A044104590470048904A104CB
:10496000B904D204EB0405051E05380552056C0593
:104970008705A205BD05D805F40510062C064806D6
:10498000650682069F06BC06DA06F8061607340797
:10499000530771079107B007D007EF0710083008D9
:1049A000510871089308B408D608F8081A093C0998
:1049B0005F098209A509C809EC09100A340A580AD6
:1049C0007D0AA20AC70AEC0A120B380B5E0B850B94
:1049D000AB0BD20BF90B210C490C700C990CC10CD0
:1049E000EA0C130D3C0D650D8F0DB90DE30D0E0E88
:1049F000380E630E8F0EBA0EE60E120F3E0F6A0FC0
:104A0000970FC40FF10F1F104D107B10A910D71076
:104A10000611351164119411C311F31124125412AB
:104A20008512B612E71219134B137D13AF13E1135E
:104A3000141447147A14AE14E21416154A157F158F
:104A4000B315E8151E1653168916BF16F5162C1742
:104A500063179A17D117091840187818B118E91870
:104A600022195B199519CE19081A421A7C1AB71A1D
:104A7000F21A2D1B681BA41BE01B1C1C581C951C48
:104A8000D21C0F1D4C1D8A1DC71D061E441E831EF1
:104A9000C11E011F401F801FFF1FFFFFF1360000D6
:104AA00094FAFF1F080022034500690067006800B0
:104AB00074004200790045006900670068007400D6
:104AC00020004400460055002803450069006700A7
:104AD00068007400420079004500690067006800C2
:104AE00074002000530065007200690061006C00D2
:104AF000180300000000000000000000000000009B
:104B000000000000000000000000000000000000A5
:104B10000000000000000000000000000000000095
:104B20000000000000000000000000000000000085
:104B300000001A0345006900670068007400420025
:104B4000790045006900670068007400180342009E
:104B50006C0069006E006B0069006E006C00610003
:104B6000620073000403090409025D000301008070
:104B7000FA080B000202020104090400000102020B
:104B8000010405240010010524010101042402068A
:104B900005240600010705810310004009040100F7
:104BA000020A000004070502024000000705830214
:104BB0004000000904020000FE01010609210D1059
:104BC000270004010112010002EF020140501DF60E
:104BD0006000010102030100FFFFFFFF0100000070
:104BE00002000000292F0000FF000000000000006C
:104BF0000000000010000811010912020A13030B43
:0C4C000014040C15050D16060E17070F06
:0400000300001000E9
:00000001FF
